:020000040800F2
:10000000584A00201D020008C94800081B38000893
:10001000C5480008291E0008915B00080000000088
:10002000000000000000000000000000055800086B
:10003000491E000800000000D957000807580008B2
:1000400037020008370200083702000837020008AC
:10005000370200083702000837020008370200089C
:10006000370200083702000837020008370200088C
:10007000370200083702000837020008370200087C
:10008000370200083702000837020008370200086C
:10009000370200083702000837020008370200085C
:1000A000370200083702000837020008370200084C
:1000B000370200083702000837020008370200083C
:1000C000370200083702000837020008370200082C
:1000D00037020008715B000837020008815B0008E6
:1000E000370200083702000837020008370200080C
:1000F00037020008370200083702000837020008FC
:1001000037020008370200083702000837020008EB
:1001100037020008370200082D580008370200088F
:1001200037020008370200083702000837020008CB
:1001300000F002F800F063F80AA090E8000C824496
:100140008344AAF10107DA4501D100F058F8AFF273
:10015000090EBAE80F0013F0010F18BFFB1A43F0A5
:100160000103184794980000B4980000103A24BF87
:1001700078C878C1FAD8520724BF30C830C144BF0C
:1001800004680C607047000000230024002500264E
:10019000103A28BF78C1FBD8520728BF30C148BFEA
:1001A0000B6070476E2900F08381702900F0C881D0
:1001B000662909F03182652909F02E82642900F050
:1001C0003B81782900F0AF81732900F05887002027
:1001D00070471FB59DE8030000F070FC00F06AFF57
:1001E00004000020002108F0F5FB401C60600020A6
:1001F000002108F005FCE0601FBD10B510BD01F046
:100200007EF81146FFF7E5FF06F0AEF901F09CF825
:1002100003B4FFF7F2FF03BC05F07BFD09488047FC
:1002200009480047FEE7FEE7FEE7FEE7FEE7FEE7D8
:10023000FEE7FEE7FEE7FEE704480549054A064BF0
:10024000704700000F58000831010008580A0020CC
:10025000584A00205822002058220020704770B5CC
:10026000064600F00FFC056806F10B0020F00704BD
:10027000B4429CBF002070BD2B466A68BAB11068BA
:10028000A04210D304F1080188423CBF5068586076
:1002900007D35168101941601168091B016058604B
:1002A0001460101D70BD13465268002AE7D1214624
:1002B000284600F0EFFB0028DED170BD70B5044683
:1002C000051F00F0DFFB0068002C14BF446870BD00
:1002D000002C18BFAC423CBF20466468F8D30168CC
:1002E0000A18AA4218BF456003D12A68054611447E
:1002F000016028684119A1421CBF6C6070BD616833
:10030000696021680844286070BD10B5044600F09B
:10031000B1FB0068005DC00602D504F1200010BDED
:10032000204610BD0FB4044910B503AA029800F08E
:10033000ABFE10BC5DF814FB080000200FB41CB528
:10034000074B06AA7B4469460090059800F065FEBD
:100350000020694600F074FE1CBC5DF814FB000030
:10036000F90C00000FB41CB50C0007AA009001D0D6
:100370002044401E074B7B4469460190069800F0DC
:100380004CFE002C03D06946002000F059FE1CBC36
:100390005DF814FBD10C000070B504468569006857
:1003A000C10601D5302600E02026C00707D070BD69
:1003B000D4E9012130469047206A401C20626D1E1E
:1003C000F6D570BD70B5044685690078C00707D1C1
:1003D00070BDD4E9012120209047206A401C206292
:1003E0006D1EF6D570BD70B50C460546012A05D0C8
:1003F0002878800600D5EA69002302E0012305E0A1
:100400005B1C934202D2E05C0028F9D1A869E6188F
:10041000C01AA861286A184428622846FFF7BCFF62
:1004200004E0D5E9012114F8010B9047B442F8D358
:100430002846FFF7C7FF70BD2DE9F04106460024AE
:1004400010687529314616A510D0AFF3008000283A
:1004500002DA404213A507E031688A0701D512A5E8
:1004600002E0490704D511A5012401E0AFF30080A3
:1004700000210A2206F1240709E0B0FBF2FCB0FBE0
:10048000F2F302FB1C00303078541846491C002857
:10049000F3D123462A463046BDE8F04100F04FBB79
:1004A000000000002D0000002B00000020000000D4
:1004B00011680268006A530501D508700AE0D30587
:1004C00001D5088006E0130603D5C217C1E9000272
:1004D00000E0086001207047F0B40D46018809056E
:1004E00002D51B4C7C4402E0194C7C440E340021A4
:1004F00000F1240305E002F00F061209A65D5E5428
:10050000491C002AF7D102780023120704D5702D68
:1005100006D009B1022311342246F0BC00F00FBB13
:1005200001231034F8E770B504460D4621461068E3
:10053000AFF30080024629462046BDE87040CBE775
:100540000368126843F0200303600823C361C3E714
:10055000039300002DE9F05F894604464FF0000A3E
:10056000DFF874B1FB44C0F820A02046E16888475A
:10057000002874D0252806D0D4E901219047206AAC
:10058000401C2062F1E700265F462046E16888476C
:100590002028054607DB312D05D2781910F8200CEC
:1005A00008B10643F1E7B00701D526F00406C4F808
:1005B0001CA00027C4F818A02A2D09D0284605F051
:1005C000A1FB38B304EB8708303DC8F8185019E098
:1005D00059F8041B204604EB87029161E1688847C3
:1005E000012F054618D1E069002820DA26F0200600
:1005F0001DE0D8F8180000EB800005EB4000303813
:10060000C8F818002046E1688847054605F07AFBDF
:100610000028EED1012F0AD02E2D08D12046E16806
:1006200088477F1C0546022F46F02006C4DBA069E0
:10063000002803DA404246F00106A061F00701D02D
:1006400026F010066C2D0BD0682D09D04C2D39D01A
:100650006A2D35D0742D35D07A2D33D016E038E0A0
:10066000E1682F4620468847B842054609D16C2FDD
:1006700026D04FF48060E16806432046884705464F
:1006800004E06C2F1AD04FF4807006430DB3A5F12F
:100690004100192802D8203546F400664A4629460A
:1006A000204626604E46FFF77DFD80B101280BD025
:1006B000F61D26F0070000F1080956E74020E4E7A0
:1006C0008020D8E70020D6E706F104094DE7284648
:1006D00052E7206ABDE8F09FAB920000401ECAB20C
:1006E00010F8011F8A4202D00029F9D1002070477A
:1006F00010B5431E13F8014F002CFBD105E011F893
:10070000014B002C03F8014B03D0521EF7D20021FD
:10071000197010BD30B505460B462A4613F8014B3B
:1007200012F8010B08B1A042F8D01CB1002802D089
:100730006D1CF1E7284630BD40EA0103024630B5A2
:100740009B0710D14FF0013400E008C208C91D1BFF
:100750009D4315EAC41FF8D013F0FF0102F8011BF6
:100760000DD01B0AF8E711F8013B002B02F8013B02
:1007700005D011F8013B002B02F8013BF3D130BD4D
:1007800010B5431C02E010F8011B71B18107FAD1CA
:100790004FF0013202C88C1A8C4314EAC211F9D00E
:1007A000C01A0A0603D0C01E10BDC01A10BD0A042C
:1007B00001D0801E10BD0902FCD0401E10BD40EAD1
:1007C000010370B59B072ED14FF00136042A2AD3BE
:1007D00008C810C99D1B9D43121F15EAC61517D0E6
:1007E000D8B2E1B2401A50EA056110D198B2A1B274
:1007F000401A50EA05410AD123F07F4024F07F419E
:10080000401A50EA052102D1180EA0EB146070BD09
:10081000A342DBD018BA21BA884201D9012070BDA9
:100820004FF0FF3070BD0AB9002070BD10F8013BD9
:1008300011F8014B63B1A3420AD1521E08D010F83F
:10084000013B11F8014B1BB1A34201D1521EEDD166
:10085000181B70BD421E12F8013F002BFBD111F88E
:10086000013B002B02F8013BF9D17047032A40F20B
:10087000308010F0030C00F0158011F8013BBCF142
:10088000020F624498BF11F801CB00F8013B38BF5A
:1008900011F8013BA2F1040298BF00F801CB38BF68
:1008A00000F8013B11F0030300F02580083AC0F086
:1008B000088051F8043B083A51F804CBA0E808102E
:1008C000F5E7121D5CBF51F8043B40F8043BAFF361
:1008D0000080D20724BF11F8013B11F801CB48BFBB
:1008E00011F8012B24BF00F8013B00F801CB48BFF1
:1008F00000F8012B704710B5203AC0F00B80B1E82A
:100900001850203AA0E81850B1E81850A0E8185044
:10091000BFF4F5AF5FEA027C24BFB1E81850A0E84D
:10092000185044BF18C918C0BDE810405FEA827C67
:1009300024BF51F8043B40F8043B08BF7047D2077E
:1009400028BF31F8023B48BF11F8012B28BF20F81F
:10095000023B48BF00F8012B70474FF0000204290A
:10096000C0F0128010F0030C00F01B80CCF1040CDE
:10097000BCF1020F18BF00F8012BA8BF20F8022B12
:10098000A1EB0C0100F00DB85FEAC17C24BF00F8B8
:10099000012B00F8012B48BF00F8012B70474FF0E6
:1009A000000200B5134694469646203922BFA0E8BF
:1009B0000C50A0E80C50B1F12001BFF4F7AF0907CB
:1009C00028BFA0E80C5048BF0CC05DF804EB8900BC
:1009D00028BF40F8042B08BF704748BF20F8022BFF
:1009E00011F0804F18BF00F8012B70474FF0013C09
:1009F00050F8042B51F8043B9A4221D1A2EB0C038E
:100A0000934313EACC1317D150F8042B51F8043B4D
:100A10009A4215D1A2EB0C03934313EACC130BD1EA
:100A200050F8042B51F8043B9A4209D1A2EB0C0375
:100A3000934313EACC13DBD04FF00000704700BFA4
:100A4000D01A01BAB1FA81F101F0180122FA01F0CD
:100A5000CB40C1F12001DBB2C0B2C01A2CFA01F3C5
:100A6000D11A914311EAC311E6D17047704770471C
:100A70007047704710B500F01DFB001D10BD00BF92
:100A8000557F000000487047000A002070477047FB
:100A90007047704738B504460A4600206946AFF3F0
:100AA0000080002808BF38BD02460099204600F0AB
:100AB00009FB012038BD012000F01ABCF8B5AFF3E6
:100AC0000080054600200C46102000BF0646A819ED
:100AD000A0420DD9324669460020AFF300800700DE
:100AE00008BF00F005FC0098A04218BF0546C419D5
:100AF000FFF7C8FF05600746F01D20F00700461904
:100B0000284600F00AF8B44208BFF8BDA21B3146DF
:100B10003868BDE8F84000F0D5BA00210160C0E9AE
:100B2000011070471020704710B500F0C7FA006838
:100B300010BD10B5044600F0C1FA046010BD2DE9E7
:100B4000F0470D4699469246044600F12408016894
:100B5000880604D5E06921F01001216000E0012041
:100B6000A84201DD471B00E00027A1697A1902EBCA
:100B70000900081AA0612078C00602D42046FFF7B9
:100B80000BFC002608E0D4E901211AF80600904782
:100B9000206A401C761C20624E45F4DB2078C0069B
:100BA0000AD52046FFF7F8FB06E0D4E90121302002
:100BB0009047206A401C2062381EA7F10107F4DC30
:100BC00007E0D4E9012118F805009047206A401C8D
:100BD0002062281EA5F10105F3DC2046FFF7F2FB99
:100BE0002078000602D50220BDE8F0870120FBE74F
:100BF00070472DE9FF4F0C461E464FF0FF378BB074
:100C0000D2E90001DDF860800A908A46C1F30A55F6
:100C100005B93D46002108464FF00000BAF1000F2B
:100C200000F4400005DA00EB80004FF4400101EAD7
:100C300050004FEA9059B9F1010F00DDB9460A980A
:100C400050EA4A000ED044F61050A5F2FF35454355
:100C50002F14B8F1000F1ED07542291E1EDDC9F1F8
:100C600000021CE0B8F1010F4FF0000001D030216C
:100C700003E0F24305E02154401CB042FBDB304668
:100C80000022002121540B99C1F80880C1E90020FD
:100C90000FB0BDE8F08FBD1B6D1CDEE74A4600DAE1
:100CA000694206A800F0AEFA06AB93E8070003AB72
:100CB00083E8070050460A9900F095FB8DE807008D
:100CC000A0F500501F3800900398002D0ADD42F275
:100CD0001F014A460844002303A90390684600F018
:100CE000FEFD09E0A0F500504A461F38002303A985
:100CF0000390684600F008FE8DE807000004000C31
:100D000003D04FF0FF30410800E01046B8F1000F6B
:100D100003D00022009215461EE0751E05D400F097
:100D2000EBF9303262556D1EF9D5B3460122084306
:100D300002D000227F1C04E02078302801D100225C
:100D40007F1E002A099784D01DE0112D07DA00F0DC
:100D5000D3F9303262556D1C50EA0102F5D10843D7
:100D600002D00098C8B10EE00021681E05E0235CA7
:100D7000625C63542254401E491C8142F7DBAB463F
:100D8000A81B401E0990002004F80B000B98099A3C
:100D9000C0F80880C0E9002B7AE711264FF0000860
:100DA00057E72DE9F04F88460446D21D22F007018F
:100DB00091B0D1E90001CDE90A0104F0FCFE024640
:100DC0000B98C00F01D02D2007E02068810701D5C6
:100DD0002B2002E0202101EAC000032A099001D063
:100DE000072A05DB03464146204600F0CBF90BE11C
:100DF0002078800601D5E06900E00620B8F1650F93
:100E0000814606D0B8F1660F18D0B8F1670F70D1DF
:100E100031E00020B9F1110F009001DB112301E056
:100E200009F101030AAA01A90CA8FFF7E2FEDDE916
:100E30000C70002609F10105834647E001204B466E
:100E400000904FF000470AAA01A90CA8FFF7D1FEB5
:100E5000DDE90DB00C995D46002610B909F10100DD
:100E60000D18B9EB050003D4C0F1FF3609F10105F7
:100E7000A5EB09002BE0B9F1010F01DA4FF00109F0
:100E80000020B9F1110F0090484601DD112300E068
:100E900003460AAA01A90CA8FFF7ABFEDDE90C7016
:100EA0004D4600268346207800070AD4AB4500DA79
:100EB0005D4601A8012D04DD411911F8011C3029FE
:100EC00007D04F4502DA17F1040F04DA01208246F9
:100ED0000FE06D1EEEE7002F02DCED1B3E4403E049
:100EE000781CA84200DD7D1CB81B00F1010A4FF000
:100EF00000472078000703D4AA4501DB4FF0FF3AF2
:100F00000021B7F1004F0DF143088DF8431024D0B4
:100F100002202B23002F01DA7F422D230A21021EFB
:100F2000A0F1010000DC5FB197FBF1FC97FBF1F24F
:100F300001FB1C7C17460CF1300C08F801CDEEE7E4
:100F4000A8F1010003702188090501D5452100E0C1
:100F50006521A0F1010800F8011C09980FA9A1EB77
:100F60000807FF1D00B10120411901EBEA70A169DA
:100F70003844081A401EA0612078C00602D42046DA
:100F8000FFF70AFA099828B1D4E901219047206AAD
:100F9000401C20622078C00622D52046FFF7FCF9CD
:100FA0001EE0002E04DBB34502DD01A8805D00E0F9
:100FB0003020D4E901219047206A401C2062761C31
:100FC000AAF101005FEA000A0AD100F073F8C068D4
:100FD0000168405CD4E901219047206A401C2062EE
:100FE000281EA5F10105DCDC07E0D4E9012118F891
:100FF000010B9047206A401C2062381EA7F10107B0
:10100000F3DC2046FFF7DEF9032011B041E60000D3
:1010100001694A1C02610878704700B58FB0CDE9BC
:1010200001310021059105497944CDE903101146AC
:101030006846FFF78FFA0FB000BD0000E5FFFFFF25
:101040000A6802F8010B0A607047D1E900239A424E
:1010500002D2531C0B601070704710B5436913B176
:10106000AFF3008001E0FFF7BEF9012010BD127858
:1010700000F124010A7000224A700122EDE7116894
:101080004FF0FF32E9E70000074B70B50D467B4497
:10109000FFF7C3FF0446284600F026F910B14FF0D1
:1010A000FF3070BD204670BDBF5200000048704741
:1010B000F809002000487047180A002000487047CF
:1010C000F8090020034640688C46002818BF884273
:1010D0003CBF03464068F8D318681844884207D0DC
:1010E0000CF1030020F00700001D411A521A0146BE
:1010F000081D0A60FFF7E2B830B5B0F10A024FEA06
:10110000900E71F100034EEA817EB0EB0E0061EBB0
:1011100091014FEA101E4EEA017E10EB0E0041EBEA
:1011200011114FEA102E4EEA016E10EB0E0041EB4A
:1011300011214FEA104E4EEA014E10EB0E0041EB2A
:101140001141401841F100014FEAD00040EA4170DE
:101150004FEAD10110EB80054FEA810444EA907414
:1011600044EB01046D1944EB0404521BA3414FF0FE
:10117000000348BF0A3200D530BD401C41F10001D8
:1011800030BD00002DE9F0411F46044603260168EA
:10119000072A01F4006004DB08B116A505E016A5D6
:1011A00003E008B115A500E015A521F010002060AE
:1011B000A069C01EA0610FB1401EA0612046FFF7CC
:1011C000EBF84FB1D4E9012138469047206A401C22
:1011D0002062C01C206206E0206AFAE7D4E90121FF
:1011E00015F8010B9047761EF8D22046FFF7EAF873
:1011F000BDE8F0814E414E006E616E00494E4600E2
:10120000696E66002DE9F047814616468AB035487A
:1012100078440DC88DE80D0032487844801C03AC3A
:101220000DC884E80D0041F69B300844372190FB3F
:10123000F1F290FBF1F5A5F1800501FB12041B3CD6
:1012400002D56442012000E00020DFF898A080462B
:101250000027FA44AAF1BE0A0EE0E0070AD032469F
:10126000684607EB470101230AEB810100F04CFBC4
:101270008DE8070064107F1C002CEED1194F7F44CD
:10128000AE3F19E0E80715D007EB04100DF1180A7E
:1012900090E80E008AE80E00C068F04201D198196B
:1012A00008903246012306A903A800F02DFB03ABEA
:1012B00083E807006D10641C002DE3D14FF001039B
:1012C00032466946B8F1000F03A802D000F007FBD0
:1012D00001E000F019FBC9E90001C9F808200AB0D3
:1012E000BDE8F08720870000007B00F08000704799
:1012F00010B500F037F8BDE8104000F02EB8754684
:10130000FFF7D4FEAE4605006946534620F00700BD
:10131000854618B020B5FEF78FFFBDE820404FF09E
:1013200000064FF000074FF000084FF0000B21F0CF
:101330000701AC46ACE8C009ACE8C009ACE8C0099C
:10134000ACE8C0098D46704710B50446AFF3008085
:101350002046BDE81040FEF75BBF002801D004F036
:10136000D8BC704710B5012805D0002103A000F0BB
:1013700021F8012010BD09A1F8E7000053494752A8
:10138000544D454D3A204F7574206F662068656155
:1013900070206D656D6F7279000000003A2048651D
:1013A0006170206D656D6F727920636F72727570F8
:1013B0007465640070B505460C460A2000E06D1C9B
:1013C00004F0A9FC35B128780028F8D102E0641CAB
:1013D00004F0A1FC14B120780028F8D1BDE87040D9
:1013E0000A2004F098BC5FEA400C08BF91F0000F9F
:1013F0004FEA8C234FEAC12243EA51514FEA1C5075
:1014000018BF00F5F0404FEA300018BF41F000412E
:101410005FEA6C5C00F02980BCF1FF3F08BF40F040
:1014200080407047130C06BF12044FF0100C4FF0B1
:10143000000C130E04BF12020CF1080C130F04BFB2
:1014400012010CF1040C930F04BF92000CF1020C7A
:10145000D30F04BF52000CF1010C11464FF00002F3
:10146000A0F11F00A0EB0C00704711F0004F08BF67
:10147000704731F000413FF4D5AF0B0C06BF0904B3
:101480004FF0100C4FF0000C0B0E04BF09020CF1D2
:10149000080C0B0F04BF09010CF1040C8B0F04BFE7
:1014A00089000CF1020CCB0F04BF49000CF1010CB8
:1014B000CCF12003A0EB0C0022FA03F302FA0CF2A9
:1014C00041EA030100F10100704720F07F4C80EAFF
:1014D000030023F07F47ACEB070303F57C5300F0D8
:1014E000004003F1FF032DE980494FEA154B09B491
:1014F0004FEA144325EA0B4E24EA03480FF2042670
:1015000006EB132749083E785FEA320203FB0667C1
:10151000C7F5000707FB06F64FEA54374FEAD646F1
:1015200006F1020607FB066CCCF1005C4FEA1C4793
:101530002CEA074C07FB06F40CFB06F504EB1546FA
:101540004FEA961634BF00204FF000404FEAD137E3
:1015500006FB07FC4FEA1C4C0CFB0BF7D21B03FBF2
:101560000CF761EB07010CFB0EF7B0EB074072EBD9
:1015700017420CFB08F734BFA2EB0742B2EB07425D
:1015800061EB17414FEA0C444FEA910706FB07FC59
:101590004FEA1C4C0CFB0BF7B0EBC74072EB573219
:1015A00003FB0CF734BFA2EBC742B2EBC74261EBBF
:1015B00057310CFB0EF7B0EBC70072EB57720CFB08
:1015C00008F734BFA2EBC702B2EBC70261EB577159
:1015D000039F4FEA816141EA921104EBCC044FEA88
:1015E000D1374FEA826206FB07FC42EA90124FEACB
:1015F00080604FEA1C4C0CFB0BF7D21B03FB0CF773
:1016000061EB07010CFB0EF7B0EB074072EB1742E2
:101610000CFB08F734BFA2EB0742B2EB074261EBC9
:1016200017414FEA8C554FEA910704EB9C2406FBC7
:1016300007FC4FEA1C4C0CFB0BF7B0EBC74072EBFE
:10164000573203FB0CF734BFA2EBC742B2EBC742E1
:1016500061EB57310CFB0EF7B0EBC70072EB577222
:101660000CFB08F734BFA2EBC702B2EBC70261EB79
:10167000577115EB4C254FEA816141EA92114FEA0F
:1016800082624FEAD13742EA901206FB07FC44F12E
:1016900000044FEA80604FEA1C4C0CFB0BF7D21B96
:1016A00003FB0CF761EB07010CFB0EF7B0EB0740F7
:1016B00072EB17420CFB08F734BFA2EB0742B2EB08
:1016C000074261EB174115EB1C154FEA813141EAE6
:1016D00092414FEA823242EA90424FEA80304FEA2A
:1016E0000C7644F1000448EA03434EEA0B484FF0FD
:1016F000000EB2EB080C71EB030724BF62463946BB
:101700004EEB0E0E4FF0000B0018524149414BEBCF
:101710000B0BB2EB080C71EB03077BF1000B24BF42
:10172000624639464EEB0E0E4FF0000B0018524148
:1017300049414BEB0B0BB2EB080C71EB03077BF150
:10174000000B24BF624639464EEB0E0E51EA0207EB
:1017500018BF46F0010616EB0E7655F1000254F163
:10176000000103D5BDE88901BDE80088BDE8890115
:10177000BDE80048B619524141EB0101A3F1010354
:10178000704780807F7E7D7C7B7A797877767675EE
:101790007473727171706F6E6E6D6C6C6B6A6A6966
:1017A0006868676666656464636362616160605F00
:1017B0005F5E5E5D5D5C5C5B5B5A5A595958585779
:1017C00057565655555554545353525252515150E1
:1017D00050504F4F4F4E4E4D4D4D4C4C4C4B4B4B34
:1017E0004A4A4A494949484848474747474646467A
:1017F00045454544444444434343434242424241B5
:101800004141002B9C4630D477002BD01CB54FEAC9
:10181000370703B44FF010004FF01001BAF1000F7A
:1018200006D0BCF1000FDCBF40F0080040F008011A
:101830004FF000000FBCBDE810400BF1010BBBF1F5
:10184000010F08BF5FEA170722BF12F1010211F171
:1018500001014FF0004143F1000300F0004043EA72
:1018600000007047F9D35708D0E746EA064613F15F
:10187000400F4FEA16461FDD13F1200FDFBF16435E
:101880000A46002120335B42BED0C3F1200746EA5E
:10189000064602FA07F74FEA164646EA0706C3F17C
:1018A000200722FA03F201FA07F721FA03F14FF0B9
:1018B000000342EA0702A7E746EA020646EA0646AE
:1018C0004FEA164646EA0106BCBF46EA0646360C13
:1018D0004FF000034FF000024FF0000194E72DE9B4
:1018E000804C9A46934670B491E8380007C831EAB4
:1018F000400C48BF34EA430C03D5FFF7E6FDFFF781
:1019000080FFF0BCBDE8008C2DE9804C9A469346E0
:1019100070B491E8380007C810F0804F08BF13F08A
:10192000804F03D100F005F8FFF76BFFF0BCBDE876
:10193000008C20F07F4780EA030023F07F4C07EB08
:101940000C03A3F57C5300F00040A3F1FE0392F0DA
:10195000000F00F0B38095F0000F00F077802DE9C4
:1019600001494FEA11404FEA144621EA004800FBC2
:1019700006FC24EA064708FB06F607FB08F800FB0E
:1019800007F718EB06484CEB164C4FEA124B18EBD6
:1019900007484FEA15464CEB174022EA0B4E0BFB6B
:1019A00006FC25EA06470EFB06F607FB0EFE0BFBC0
:1019B00007F71EEB064E4CEB164C4FF000061EEBE5
:1019C000074E4CEB174B18EB0B0840F1000018EBDF
:1019D0000E0B58EB000840F100008F1A4FF0000189
:1019E0003CBFC943661B14BFB5EB040C00213CBFD0
:1019F000C943F61B4FEA17444EEA8E0E27EA044508
:101A00004FEA1C4704FB07622CEA074C05FB07F76B
:101A10000CFB05F604FB0CFC16EB074642EB1742E9
:101A200016EB0C4642EB1C421BEB060658EB02027F
:101A3000414146EA9E0601D5BDE80189B6195241E9
:101A400041EB0101A3F10103BDE801894FEA14450F
:101A50004FEA114724EA054621EA074C05FB07F443
:101A600006FB07F70CFB06F105FB0CFC11EB07412D
:101A700044EB17444FEA124711EB0C4144EB1C4472
:101A800022EA074C05FB07F206FB07F70CFB06F6FC
:101A900005FB0CFC16EB074642EB174216EB0C4617
:101AA00042EB1C456A1854F1000148BF7047B61953
:101AB000524141EB0101A3F10103704795F0000F82
:101AC00037D04FEA11424FEA144721EA024624EA8E
:101AD000074C02FB07F106FB07F70CFB06F402FBC1
:101AE0000CFC14EB074441EB17414FEA154714EB8C
:101AF0000C4441EB1C4125EA074C02FB07F506FBB1
:101B000007F70CFB06F602FB0CFC16EB074645EB51
:101B1000174516EB0C4645EB1C42121951F100011A
:101B200048BF7047B619524141EB0101A3F10103CF
:101B300070474FEA14454FEA114724EA054621EA67
:101B4000074C05FB07F106FB07F70CFB06F24FF00D
:101B5000000605FB0CFC12EB074241EB174112EBB0
:101B60000C4251EB1C4148BF7047921841EB0101F8
:101B7000A3F10103704700002DE9F04707468946AD
:101B80009046DDF820C00021002200240026002518
:101B9000002004460246014645E0002601E0491CBB
:101BA000761C614502D2585C2028F8D0614500D1EE
:101BB0003BE0ACEB0100022807D3585C0D2804D1B0
:101BC000481C185C0A2800D12CE0585C0A2800D177
:101BD00028E01EB16FF02B00BDE8F087585C3D286F
:101BE00006D1601C0446022802D96FF02B00F3E7EF
:101BF000585C7F2806DC585CDFF8E4A01AF8000087
:101C00007F2802D16FF02B00E6E7585CDFF8D0A008
:101C10001AF80000402803DA14B16FF02B00DBE75C
:101C2000521C00BF491C6145B7D300BF1AB9002040
:101C3000C8F80000D0E7D00800EB40004FEA400AA7
:101C400002F0070000EB40004000C01D0AEBD0028C
:101C5000121B0FB1914504D2C8F800206FF0290083
:101C6000BAE703240020064602463D4631E01878D4
:101C70000D2805D018780A2802D01878202800D11D
:101C800025E01878DFF858A01AF80000402801D1A4
:101C9000012000E00020241A1878DFF844A01AF888
:101CA000000066F39F100646501C024604280DD122
:101CB000002214B1300C05F8010B012C02D9300AB6
:101CC00005F8010B022C01D905F8016B00BF491E74
:101CD0005B1C0029CBD1E81BC8F8000000207BE783
:101CE000649700082DE9F04F07468946099C0025B6
:101CF0000026AC46A846AA4600211CB90020106068
:101D0000BDE8F08F0320B4FBF0F04FF0030BB4FB01
:101D1000FBFE0BFB1E4BBBF1000F02D04FF0010B83
:101D200001E04FF0000B00EB0B06B6F1804F05D33E
:101D30004FF0FF3010606FF02900E1E7B600701C33
:101D4000814500D327B9701C10606FF02900D7E7D8
:101D50000320B4FBF0F000EB40060025394629E0F3
:101D600013F801CB13F8018B13F801AB2D484FEAA0
:101D70009C0B10F80B0001F8010B4FEA0C1000EB64
:101D8000281000F03F00DFF89CB01BF8000001F8BD
:101D9000010B4FEA880000EBAA1000F03F001BF88F
:101DA000000001F8010B0AF03F001BF8000001F8E9
:101DB000010BED1CB542D3D3A5422DD213F801CBB4
:101DC000681CA04202D213F8010B00E000208046FC
:101DD0001448CCF3850B10F80B0001F8010B4FEA07
:101DE0000C1000EB281000F03F00DFF838B01BF8B3
:101DF000000001F8010B681CA04207D23F2000EA56
:101E000088001BF8000001F8010B02E03D2001F8FA
:101E1000010B3D2001F8010BC81B10600020087069
:101E200000BF6DE72497000800BFFEE700BF04482D
:101E300000680028FBD1034800680149086070472A
:101E4000300000202C0000207047000010B54FF437
:101E500000610448FEF781FD002003490880034922
:101E6000088010BDF801002042000020440000203E
:101E700070B50546002400BF00F078F998B90FA1AD
:101E80001048FEF747FC04466CB13A212046FEF7A5
:101E900025FC04462CB100200B490860641C204638
:101EA00070BD0020FCE7052004F0A4F8281EA5F171
:101EB00001018DB2E0D100BFF2E700004950442C8F
:101EC00000000000F80100202000002000B585B0CF
:101ED00000BF3F48806940F004003D4988610846E2
:101EE000806900F00400009000BF00BF1020019046
:101EF000012002900220049001A9364800F05EFA09
:101F000000221021334800F00BFC4FF4FA7004F06B
:101F100071F8012210212F4800F002FC4FF4FA70F2
:101F200004F068F8FFF792FF4FF4E13006F01AFD75
:101F300029A0FEF7F7F929A0FEF7F4F903E04FF422
:101F4000FA7004F057F82BA12BA000F0BFF800287E
:101F5000F5D12BA0FEF7E6F903E04FF4FA7004F098
:101F600049F824A12BA000F0B1F80028F5D12DA04C
:101F7000FEF7D8F903E04FF4FA7004F03BF81DA126
:101F80002DA000F0A3F80028F5D12FA0FEF7CAF984
:101F900003E04FF4FA7004F02DF830A131A000F006
:101FA00095F80028F5D13AA0FEF7BCF93CA0FEF761
:101FB000B9F941A0FEF7B6F939A0FEF7B3F907A0C9
:101FC000FEF7B0F904A0FEF7ADF905B000BD0000C2
:101FD00000100240000801400D0A00003D3D3D3D5B
:101FE0003D3D3D3D3D3D3D3D3D3D3D3D3D3D3D0D51
:101FF0000A0000004F4B000041540D0A0000000091
:1020000045535038323636204154204F4B210D0A6B
:102010000000000041542B43574D4F44453D310DC6
:102020000A00000043574D4F444520534554204F6C
:102030004B210D0A0000000041542B4357444843F4
:10204000503D312C310D0A00435744484350205332
:102050004554204F4B210D0A00000000474F5420EB
:102060004950000041542B43574A41503D2254509F
:102070002D4C494E4B5F37393830222C22313530C8
:10208000373934303335363321220D0A0000000051
:1020900057494649204C696E6B204F4B210D0A0071
:1020A0002D2D2D2D2D2D2D2D2D2D2D2D2D2D2D2D60
:1020B0002D2D2D0D0A0000004553503832363620A4
:1020C000496E6974204F4B210D0A00002DE9F04143
:1020D00004460D4690262046FEF752FB87B23A464C
:1020E00021460D4803F056FD0FE000F03FF848B9D7
:1020F00029460A48FEF70EFB20B1FFF7A7FE002095
:10210000BDE8F0810A2003F075FF301EA6F1010141
:10211000CEB2EAD10120F3E700480040F8010020E8
:1021200030B589B004460D46FFF790FE03F070FB12
:102130002A4608A101A8FEF701F90AA101A8FFF7A4
:10214000C5FF20B92A462146074803F023FD09B000
:1021500030BD000041542B43495053454E443D256A
:10216000640D0A003E000000004800400B48008853
:1021700008B9012070470948008809490988884240
:1021800005D100200549088005490880F2E7034889
:102190000088034908800120ECE70000420000208D
:1021A0004400002070B5ADF5007D04460E4615468E
:1021B0004FF400716846FEF7F2FB10A16846FEF787
:1021C00049FB21466846FEF745FB0EA16846FEF72F
:1021D00041FB31466846FEF73DFB0B496846FEF77A
:1021E00039FB29466846FEF735FB08A16846FEF72D
:1021F00031FB68460DF5007D70BD00004745542059
:10220000000000003F0000004C9900080D0A0D0A74
:102210000000000070B50446002594F82100022853
:1022200003D00420A0630125C1E02068006820F0ED
:102230000E00216808602068006820F00100216815
:1022400008605C492068884252D95A497839206828
:10225000884201D1012047E056496439206888420C
:1022600001D1102040E0534950392068884201D103
:10227000801539E04F493C392068884201D18014EB
:1022800032E04C4928392068884202D14FF480302E
:102290002AE0484914392068884202D14FF480105E
:1022A00022E044492068884201D140041CE04249B0
:1022B0002068884201D1012016E03F49143120688E
:1022C000884201D110200FE03B4928312068884224
:1022D00001D1801508E038493C312068884201D19D
:1022E000801401E04FF480303349091F086051E049
:1022F000304978392068884201D1012047E02D49D2
:1023000064392068884201D1102040E029495039C1
:102310002068884201D1801539E026493C3920687F
:10232000884201D1801432E022492839206888424D
:1023300002D14FF480302AE01E49143920688842C7
:1023400002D14FF4801022E01A492068884201D15E
:1023500040041CE018492068884201D1012016E0A1
:10236000154914312068884201D110200FE012492C
:1023700028312068884201D1801508E00E493C319F
:102380002068884201D1801401E04FF4803009496F
:1023900080394860012084F8210000BF002084F8C3
:1023A000200000BF606B10B12046616B8847284653
:1023B00070BD000080000240080402402DE9F8478B
:1023C000024600239C467BE14FF0010808FA03F423
:1023D000D1F8008008EA0400A0427DD1DFF8F4A221
:1023E000D1F80480A8EB0A09D0453AD014DCB8F142
:1023F000030F50D009DCB8F1000F31D0B8F1010F54
:102400001CD0B8F1020F49D120E0B8F1110F18D05B
:10241000B8F1120F42D11EE0B9F5881F25D006DCB5
:10242000B9F5803F20D0B9F5801F37D11AE0B9F552
:10243000001F18D0B9F5041F30D117E0D1F80CC037
:102440002DE0D1F80C8008F1040C28E0D1F80C80C4
:1024500008F1080C23E0D1F80C8008F10C0C1EE008
:1024600000BF00BF00BF00BF00BF00BFD1F80880A1
:10247000B8F1000F02D14FF0040C0BE0D1F8088046
:10248000B8F1010F03D14FF0080C146102E04FF0D6
:10249000080C546103E04FF0000C00E000BF00BFE7
:1024A000FF2801D8904601E002F104084646FF28C3
:1024B00002D84FEA830803E0A3F108084FEA88082E
:1024C0004746D6F800804FF00F0909FA07F928EAC5
:1024D00009080CFA07F900E07AE048EA0908C6F8AA
:1024E0000080D1F8048008F08058B8F1805F6FD187
:1024F00000BFDFF8E481D8F8188048F00108DFF861
:10250000D891C9F81880C846D8F8188008F0010892
:10251000CDF8008000BF00BF4FEAB9384FEA9309F9
:1025200058F829504FEA83784FEA18794FF00F088E
:1025300008FA09F825EA0805DFF8A081424502D12A
:102540004FF0000824E0DFF89881424502D14FF0B7
:1025500001081DE0DFF88C81424502D14FF00208EE
:1025600016E0DFF88481424502D14FF003080FE006
:10257000DFF87881424502D14FF0040808E0DFF827
:102580007081424502D14FF0050801E04FF0060886
:102590004FEA83794FEA197908FA09F848EA0505FC
:1025A000DFF850814FEA930948F82950D1F80480A8
:1025B00008F48038B8F5803F0BD1DFF83C81D8F8BB
:1025C000008048EA0008DFF83091C9F800800AE08E
:1025D00075E0DFF82481D8F8008028EA0008DFF8E9
:1025E0001891C9F80080D1F8048008F40038B8F5D3
:1025F000003F0ED1DFF8008108F10408D8F8008010
:1026000048EA0008DFF8F09009F10409C9F80080F1
:102610000DE0DFF8E48008F10408D8F8008028EA2B
:102620000008DFF8D49009F10409C9F80080D1F856
:10263000048008F48018B8F5801F0ED1DFF8B88048
:1026400008F10808D8F8008048EA0008DFF8A890E8
:1026500009F10809C9F800800DE0DFF89C8008F155
:102660000808D8F8008028EA0008DFF88C9009F103
:102670000809C9F80080D1F8048008F40018B8F5FA
:10268000001F0ED1DFF8708008F10C08D8F8008028
:1026900048EA0008DFF8609009F10C09C9F80080E9
:1026A0000DE0DFF8548008F10C08D8F8008028EA23
:1026B0000008DFF8449009F10C09C9F800805B1CA0
:1026C000D1F8008028FA03F8B8F1000F7FF47CAE4F
:1026D000BDE8F8870000111000100240000801401A
:1026E000000C01400010014000140140001801409E
:1026F000001C0140080001400004014002469368AC
:102700000B400BB1012000E00020704710B5C268FB
:1027100021EA020302EA010443EA0443036110BD13
:102720000AB1016101E00B040361704701480068D0
:10273000704700001000002070B504460CB901205D
:1027400070BD4CF6CC402168086045F255502168B8
:102750000860D4E9001048602168A0688860FFF72D
:10276000E5FF054606E0FFF7E1FF401B262801D9FB
:102770000320E5E72068C0680028F4D14AF6AA20C3
:10278000216808600020DBE701464AF6AA200A68B3
:102790001060002070470000034800680349097872
:1027A000084401490860704710000020180000200C
:1027B00010B50848006840F0100006490860052080
:1027C00000F080F80F2000F007F800F02BF8002050
:1027D00010BD00000020024070B504460E4800788D
:1027E0004FF47A71B1FBF0F00C490968B1FBF0F5D8
:1027F000284600F0E3FB08B1012070BD102C07D281
:1028000000222146501E00F01EF80548046001E039
:102810000120F2E70020F0E718000020000000206F
:1028200014000020704701460846002809DB00F02C
:102830001F0301229A4043099B0003F1E023C3F8E0
:10284000002100BF70472DE9F05F80460D46164617
:10285000002703F0C5F9074639462A46334601F0FA
:102860000700C0F1070ABAF1040F02D94FF0040AB9
:1028700001E0C0F1070AD14600F1040ABAF1070FDE
:1028800002D24FF0000A01E0A0F1030AD4464FF053
:10289000010A0AFA09FAAAF1010A0AEA020A0AFA7C
:1028A0000CFA4FF0010B0BFA0CFBABF1010B0BEA2E
:1028B000030B4AEA0B042146404603F099F9BDE8B0
:1028C000F09F000000BF00F00702064B19684FF6AA
:1028D000FF031940044B0B4343EA0221014B1960EB
:1028E00000BF70470CED00E00000FA0570B504462B
:1028F0000D460CB9012070BD5A48006800F0070071
:10290000A8420ED25748006820F0070028435549D6
:1029100008600846006800F00700A84201D00120C6
:10292000E9E7207800F0020002281DD1207800F0AD
:102930000400042805D14C48406840F4E0604A494E
:102940004860207800F00800082805D14648406813
:1029500040F46050444948604348406820F0F0002B
:10296000A168084340494860207800F0010078B32E
:102970006068012806D13C48006800F4003090B936
:102980000120B8E76068022806D13748006800F0E7
:10299000007040B90120AEE73348006800F0020043
:1029A00008B90120A7E73048406820F003006168BB
:1029B00008432D494860FFF7B9FE064609E0FFF7D6
:1029C000B5FE801B41F28831884202D9032092E78C
:1029D00007E02548406800F00C006168B0EB810F0B
:1029E000EDD12048006800F00700A8420ED91D482C
:1029F000006820F0070028431A490860084600686C
:102A000000F00700A84201D0012074E7207800F010
:102A10000400042807D11448406820F4E060E1680D
:102A2000084311494860207800F00800082808D1C0
:102A30000D48406820F46050216940EAC1000A490D
:102A4000486000F03FF808494968C1F30311074A9C
:102A5000515CC8400649086006480068FFF7BCFEA4
:102A6000002048E700200240001002400C970008B8
:102A7000000000201400002001480068704700009A
:102A80000000002000B5FFF7F7FF04494968C1F3D3
:102A90000221034A515CC84000BD00000010024002
:102AA0001C97000800B5FFF7E7FF04494968C1F328
:102AB000C221034A515CC84000BD00000010024022
:102AC0001C970008F0B585B00FF26C0C9CE8E01084
:102AD00001A8A0E8E0101CA52D68009500210022A7
:102AE000002300240020194D696801F00C05F5B1A0
:102AF000042D02D0082D19D101E0154819E001ADCF
:102B0000C1F38346AC5D01F4803555B10F4D6D685E
:102B1000C5F340451DF805200D4D6543B5FBF2F3A7
:102B200002E00C4D04FB05F3184602E000BF084824
:102B300000BF00BF05B0F0BD020304050607080989
:102B40000A0B0C0D0E0F10100102000000100240C5
:102B500000127A0000093D00F8B504460CB90120C6
:102B6000F8BD207800F00100002878D0F8484068CF
:102B700000F00C0004280CD0F548406800F00C0070
:102B8000082811D1F248406800F48030B0F5803F49
:102B90000AD1EF48006800F4003000285FD0606878
:102BA00000285CD10120DBE700BF6068B0F5803F02
:102BB00006D1E748006840F48030E549086028E025
:102BC000606858B9E248006820F48030E049086045
:102BD0000846006820F4802008601AE06068B0F5BC
:102BE000A02F0BD1DA48006840F48020D849086053
:102BF0000846006840F4803008600AE0D448006865
:102C000020F48030D24908600846006820F4802013
:102C1000086000BF606888B1FFF788FD054606E0E0
:102C2000FFF784FD401B642801D9032098E7C848BA
:102C3000006800F400300028F2D010E0FFF776FDC5
:102C4000054606E0FFF772FD401B642801D903200A
:102C500086E7BF48006800F400300028F2D12078F1
:102C600000F00200022857D1B948406800F00C007B
:102C700050B1B748406800F00C00082818D1B4489B
:102C8000406800F4803098B9B148006800F0020054
:102C900020B12069012801D0012061E7AC4800681B
:102CA00020F0F800616940EAC100A949086033E0FA
:102CB0002069E8B10120A7490860FFF737FD054604
:102CC00006E0FFF733FD401B022801D9032047E748
:102CD0009F48006800F002000028F2D09C4800687D
:102CE00020F0F800616940EAC1009949086013E0EA
:102CF000002098490860FFF719FD054606E0FFF738
:102D000015FD401B022801D9032029E790480068DF
:102D100000F002000028F2D1207800F00800082816
:102D20002DD1A069B8B101208B490860FFF7FEFCE6
:102D3000054606E0FFF7FAFC401B022801D90320F4
:102D40000EE78348406A00F002000028F2D001201C
:102D500002F044FD13E000207F490860FFF7E6FC25
:102D6000054606E0FFF7E2FC401B022801D90320DC
:102D7000F6E67748406A00F002000028F2D1207899
:102D800000F00400042873D100277148C06900F0E6
:102D9000805070B900BF6E48C06940F080506C49E7
:102DA000C8610846C06900F08050009000BF00BFB5
:102DB00001276A48006800F48070B0B9674800686D
:102DC00040F4807065490860FFF7B0FC054606E0F6
:102DD000FFF7ACFC401B642801D90320C0E65F4824
:102DE000006800F480700028F2D000BFE06801287D
:102DF00006D15748006A40F001005549086227E0B3
:102E0000E06858B95248006A20F001005049086251
:102E10000846006A20F00400086219E0E06805280E
:102E20000BD14B48006A40F004004949086208464B
:102E3000006A40F0010008620AE04548006A20F09C
:102E40000100434908620846006A20F00400086255
:102E500000BFE068A0B1FFF769FC054609E0FFF795
:102E600065FC401B41F28831884202D9032077E695
:102E700022E03748006A00F002000028EFD012E09C
:102E8000FFF754FC054608E0FFF750FC401B41F2F9
:102E90008831884201D9032062E62D48006A00F09B
:102EA00002000028F0D1012F05D12948C06920F087
:102EB00080502749C86100BFE069C8B32448406812
:102EC00000F00C00082860D0E069022848D10020FA
:102ED00020490866FFF72AFC054606E0FFF726FCB6
:102EE000401B022801D903203AE61948006800F087
:102EF00000700028F2D1206AB0F5803F07D1144855
:102F0000406820F40030A168084311494860D4E9C2
:102F1000080108430E49496821F4741108430C491B
:102F2000486001200B490866FFF700FC054607E0F2
:102F30003DE0FFF7FBFB401B022801D903200FE611
:102F40000348006800F000700028F2D02FE0000075
:102F500000100240000042428004424200700040E3
:102F6000002014490866FFF7E1FB054606E0FFF77D
:102F7000DDFB401B022801D90320F1E50E48006863
:102F800000F000700028F2D111E0E069012800D1C2
:102F9000E6E50948466806F48031206A814204D19A
:102FA00006F47011606A814201D00120D8E500204A
:102FB000D6E50000000042420010024070B5044611
:102FC0002546681EB0F1807F01D301200FE0681E06
:102FD0004FF0E02148610F214FF0FF3002F008FE72
:102FE00000204FF0E021886107200861002070BDBB
:102FF0007047704710B504460CB9012010BD94F815
:103000003D0028B9002084F83C00204600F026F856
:10301000022084F83D00211D206802F00FFC0120F1
:1030200084F8460000BF84F83E0001213F2001558E
:10303000402001554120015500BF00BF012084F808
:10304000420043200155442001554520015500BF51
:10305000012084F83D000020D0E7000038B5044688
:103060000E492068884217D100BF00BF0C48C069D4
:1030700040F010000A49C8610846C06900F010001D
:10308000009000BF00BF00BF032201213620FFF7E0
:10309000DAFB3620FFF7C7FB38BD00000010004008
:1030A00000100240014691F83D00012801D00120A6
:1030B0007047022081F83D000868C06840F00100B8
:1030C0000B68D860164B0868984213D0154B0868F7
:1030D00098420FD00868B0F1804F0BD0124B0868AF
:1030E000984207D0114B0868984203D0104B0868EB
:1030F00098420CD10868806800F00702062A0CD0BC
:103100000868006840F001000B68186005E0086876
:10311000006840F001000B6818600020C8E700005C
:10312000002C014000340140000400400008004031
:10313000000C0040704710B5044620680069C0F3D9
:103140004000D8B12068C068C0F34000B0B16FF053
:10315000020021680861012020772068806900F062
:10316000030018B12046FFF7E5FF05E0204600F018
:10317000ADF8204600F0ABF8002020772068006909
:10318000C0F38000D8B12068C068C0F38000B0B13F
:103190006FF00400216808610220207720688069B0
:1031A00000F4407018B12046FFF7C4FF05E0204648
:1031B00000F08CF8204600F08AF800202077206884
:1031C0000069C0F3C000D8B12068C068C0F3C00077
:1031D000B0B16FF0080021680861042020772068F2
:1031E000C06900F0030018B12046FFF7A3FF05E017
:1031F000204600F06BF8204600F069F800202077A8
:1032000020680069C0F30010D8B12068C068C0F31E
:103210000010B0B16FF0100021680861082020771D
:103220002068C06900F4407018B12046FFF782FFA3
:1032300005E0204600F04AF8204600F048F800205B
:1032400020772068006900F0010058B12068C0684C
:1032500000F0010030B16FF00100216808612046E4
:1032600000F036F820680069C0F3C01058B120683B
:10327000C068C0F3C01030B16FF0800021680861F1
:103280002046FFF7B5FE20680069C0F3801058B1F2
:103290002068C068C0F3801030B16FF04000216832
:1032A0000861204600F040F820680069C0F3401033
:1032B00058B12068C068C0F3401030B16FF02000F2
:1032C000216808612046FFF794FE10BD70477047E3
:1032D000104A016891421BD10F490968491C0E4AE6
:1032E00011600E490968491C0C4A11600C490968B3
:1032F000002904DD0A490968491E094A1160094983
:103300000968002904DD07490968491E054A11605A
:10331000704700000010004020000020280000201E
:103320003000002038000020704770472DE9F0473A
:103330000446206805682068C668206847694FF021
:103340000008C14605F00F08B8F1000F0AD105F0DA
:10335000200038B106F0200020B1204602F00AFB20
:10336000BDE8F087B8F1000F71D007F0010018B97F
:1033700006F4907000286AD005F0010030B106F420
:10338000807018B1E06B40F00100E06305F00400CC
:1033900030B107F0010018B1E06B40F00200E063CB
:1033A00005F0020030B107F0010018B1E06B40F009
:1033B0000400E06305F0080048B106F0200010B9F1
:1033C00007F0010018B1E06B40F00800E063E06B2B
:1033D00068B305F0200028B106F0200010B12046A7
:1033E00002F0C8FA20684069C0F38019E06B00F071
:1033F000080010B9B9F1000F22D0204602F09AFA65
:103400002068406900F04000B0B12068406920F0B9
:10341000400021684861606B50B11848616B486397
:10342000606BFEF7F7FE10B1606B416B88470CE0F4
:103430002046FFF77AFF08E02046FFF776FF04E01A
:103440002046FFF772FF0020E06389E7FFE705F001
:10345000800030B106F0800018B1204602F058FB21
:103460007EE705F0400030B106F0400018B120467C
:1034700002F070FA74E700BF72E7000021590008FB
:1034800010B504460CB9012010BDA06900B100E0E0
:1034900000BF94F8390028B9002084F8380020468D
:1034A00000F028F8242084F839002068C06820F44F
:1034B00000502168C860204602F0ACFA206800691C
:1034C00020F49040216808612068406920F02A00BB
:1034D000216848612068C06840F400502168C860D5
:1034E0000020E063202084F8390084F83A000020AE
:1034F000CAE7000010B586B0044600200290039091
:10350000049005904F49206888424AD100BF00BF0F
:103510004D48806940F004004B4988610846806945
:1035200000F00400019000BF00BF00BF00BF00BF5B
:103530000846806940F0040088610846806900F010
:103540000400019000BF00BF00BF00BF00BF0846DD
:10355000806940F4804088610846806900F48040BA
:10356000019000BF00BF00BF4815029002200390E9
:10357000012004900320059002A93448FEF71EFFA5
:103580004FF4806002900020039002A92F48FEF7BC
:1035900015FF2520FFF747F9032211462520FFF7E5
:1035A00052F92B49206888424AD100BF00BF264803
:1035B000806940F00800244988610846806900F06D
:1035C0000800019000BF00BF00BF00BF00BF084659
:1035D000806940F0080088610846806900F00800B2
:1035E000019000BF00BF00BF00BF00BF0846C06918
:1035F00040F48020C8610846C06900F48020019032
:1036000000BF00BF00BF08150290022003900120F8
:1036100004900320059002A90E48FEF7CFFE4FF458
:10362000006002900020039002A90A48FEF7C6FE3F
:103630002720FFF7F8F8022211462720FFF703F9A9
:1036400006B010BD003801400010024000080140E3
:1036500000480040000C014010B5034693F83A00C2
:1036600020282FD101B10AB9012010BD00BF93F865
:103670003800012801D10220F7E7012083F8380043
:1036800000BF99629A85DA850020D863222083F8EA
:103690003A0000BF002083F8380000BF1868C068F7
:1036A00040F480701C68E0601868406940F00100D8
:1036B0001C6860611868C06840F020001C68E06009
:1036C0000020D2E70220D0E710B504462D4920683B
:1036D00088423BD12C48008800F4004088BB2A482F
:1036E000008800F4804070B1284800780A2803D090
:1036F00000202549088024E02348008840F4004049
:10370000214908801DE0214800780D2806D11E4877
:10371000008840F480401C49088012E01B48007873
:1037200019490988C1F30D01194A505416480088F7
:10373000401C1549088008460088C72801DD002084
:103740000880012211491348FFF786FF12492068BB
:10375000884216D111480088B0F5006F02D30020CE
:103760000E490880094801780C4802880088401CEE
:103770000A4B18800A488154012204490948FFF77E
:103780006BFF10BD003801400C0000200E0000202F
:103790005C0000202401002000480040420000207E
:1037A000F80100206401002070472DE9F0478146B0
:1037B0007B214846FCF792FF064616B90020BDE87B
:1037C000F0870124751C0BE028787B2801D1641C4C
:1037D00003E028787D2800D1641E04B904E06D1C44
:1037E000287808B1002CEFDC00BF0CB10020E6E720
:1037F000A81B471C781CFCF732FD8046B8F1000F6F
:1038000001D10020DBE73A4631464046FDF72EF86D
:10381000002008F807004046D1E700BFFEE700009F
:1038200000B585B000BF0C48806940F040000A49EF
:1038300088610846806900F04000009000BF00BF2A
:1038400004200190002002900120039001A9034868
:10385000FEF7B4FD05B000BD0010024000180140A5
:1038600010B5002404210A48FEF748FF68B90A2071
:1038700002F0C0FB00E0012404210548FEF73EFFF2
:103880000028F8D00A2002F0B5FB204610BD000049
:103890000018014000B585B000BF0F48806940F0B6
:1038A00008000D4988610846806900F00800009012
:1038B00000BF00BF20200190012002900220049050
:1038C00001A90648FEF77AFD012220210348FEF7F0
:1038D00027FF05B000BD000000100240000C0140B1
:1038E00010B520210648FEF711FF0648007818B1F0
:1038F00000200449087002E001200249087010BD50
:10390000000C01401900002070B586B00020029024
:103910000390049005900024002501904FF48070DE
:10392000FCF79DFC0190002628A0FCF7FBFC28A0DA
:10393000FCF7F8FC2CA0FCF7F5FC01A801F062F9FB
:103940000446002C24D002A8002322462AA100907D
:103950002CA000F0BBFBB8B908E00198415D039AC8
:10396000501C039002988154681C05B2A542F4DBF8
:10397000039A91B20298FEF7D3FB25A0FCF7D2FC84
:1039800002A800F025F906E025A0FCF7CBFC02E038
:103990002BA0FCF7C7FC0198FCF790FC6420FEF715
:1039A00067FA064636B1304601F076FC2CA0FCF7EB
:1039B000B9FC02E030A0FCF7B5FC05A0FCF7B2FCB6
:1039C00002A0FCF7AFFC06B070BD00000D0A0000BD
:1039D0003D3D3D3D3D3D3D3D3D3D3D3D3D3D3D3D17
:1039E0003D3D3D0D0A000000B3A2CAD4C9CFB1A825
:1039F000CAF4D0D40D0A0000455350383236365F31
:103A0000310000003769396236305532587A00008B
:103A1000D5FDD4DAC9CFB4ABCAFDBEDD0D0A0000B6
:103A2000B4EDCEF33A20D7EED0C2CAFDBEDDB0FC75
:103A3000D7E9B0FC20CAA7B0DC210D0A00000000C5
:103A4000B4EDCEF33A20BBF1C8A1D7EED0C2CAFD87
:103A5000BEDDB0FC20CAA7B0DC210D0A00000000CA
:103A6000C9E8B1B8CAF4D0D4C9CFB1A820B3C9B994
:103A7000A6210D0A00000000C9E8B1B8CAF4D0D4EC
:103A8000C9CFB1A820C9CFB4ABCAA7B0DC210D0AF9
:103A90000000000010B500241FA0FCF743FC1FA08D
:103AA000FCF740FC00BF23A001F06AF86420FEF799
:103AB000DFF90446002CF6D0204601F0EDFB00248F
:103AC00000BF26A001F05CF86420FEF7D1F904469F
:103AD000002CF6D0204601F0DFFB002400BF27A019
:103AE00001F04EF86420FEF7C3F90446002CF6D02E
:103AF000204601F0D1FB002428A0FCF713FC2DA0E8
:103B0000FCF710FC25A0FCF70DFC04A0FCF70AFC58
:103B100001A0FCF707FC10BD0D0A00003D3D3D3D36
:103B20003D3D3D3D3D3D3D3D3D3D3D3D3D3D3D0DF5
:103B30000A000000247379732F25732F25732F74C7
:103B400068696E672F70726F70657274792F706F0D
:103B500073742F7265706C790000000024737973A0
:103B60002F25732F25732F7468696E672F70726FFE
:103B700070657274792F7365740000002473797313
:103B80002F25732F25732F7468696E672F70726FDE
:103B900070657274792F6765740000002D2D2D2DCE
:103BA0002D2D2D2D2D2D2D2D2D2D2D2D2D2D2D0D65
:103BB0000A000000B3A3D3C34D51545420746F7056
:103BC0006963B6A9D4C4CDEAB3C9210D0A000000C7
:103BD00010B50446207B012802D12068FCF76EFB5B
:103BE000002020606060A060207310BD02460023AA
:103BF00001230DE002F07F000870D2092AB1087895
:103C000040F080000870491C01E0184670475B1CBA
:103C1000042BEFDD4FF0FF30F8E770B504460E4699
:103C20000025206898B9012020733046FCF717FB67
:103C300020602068E0B100206060A66003E0002002
:103C4000216848556D1CA068A842F8D810E00220F1
:103C5000207303E00020216848556D1CA068A8422D
:103C6000F8D800206060A068B04201D20020206037
:103C700070BD00002DE9FF4F83B082468B46914610
:103C8000159C0025002002900F2701904846FCF764
:103C900077FD0FFA80F8B9F1000F03D1012007B0CA
:103CA000BDE8F08F08F10200384487B2109808B1DF
:103CB00045F00205129878B145F004051298FCF71A
:103CC0005FFDC0B202901398FCF75AFD01460298BE
:103CD000001D0844384487B2119820B1012804D04F
:103CE000022808D104E000BF07E045F00C0504E01D
:103CF00045F0140501E00220D1E700BF149808B197
:103D000045F02405BAF1000F02D0BBF1000F01D13C
:103D10000320C4E745F0C0055046FCF731FD0646D8
:103D20005846FCF72DFD3044001D384487B2394613
:103D30002046FFF772FF206808B90420AFE7394634
:103D40002068FCF70AFE10216268501C6060206841
:103D50008154D4E90023D118781FFFF747FF00B240
:103D600001900198002804DA2046FFF731FF052072
:103D700095E7616801980844606000216268501C02
:103D800060602068815404216268501C6060206873
:103D900081544D216268501C60602068815451211B
:103DA0006268501C60602068815454216268501C15
:103DB0006060206881546268501C60602068815493
:103DC00004216268501C6060206881546168481C4E
:103DD0006060206845540698010A6268501C606063
:103DE000206881540698C1B26268501C60602068E7
:103DF0008154C8F307216268501C606020688154B8
:103E00006268501C6060206800F80280D4E90012EB
:103E1000881842464946FCF76BFC60684044606085
:103E200005F00400B8B30026139808B938A0139021
:103E30001298FCF7A5FC86B2310A6268501C6060DB
:103E4000206881546268501C606020688654D4E900
:103E50000012881832461299FCF74AFC6068304418
:103E600060601398FCF78CFC86B2310A6268501CC3
:103E70006060206881546268501C606020688654CD
:103E8000D4E90012881832461399FCF731FC6068B7
:103E90003044606000BF05F08000C8B15046FCF7B8
:103EA0006FFC86B2310A6268501C606020688154E1
:103EB0006268501C606020688654D4E9001288183B
:103EC00032465146FCF714FC60683044606000BF25
:103ED00005F04000C8B15846FCF752FC86B2310AE2
:103EE0006268501C6060206881546268501C606089
:103EF00020688654D4E90012881832465946FCF7E7
:103F0000F7FB60683044606000BF0020C7E6000037
:103F1000000000002DE9FF4F83B083461746994605
:103F2000139C002500260020029001908046BBF1E2
:103F3000000F03D1012007B0BDE8F08F00260AE092
:103F40000498805D232803D00498805D2B2801D13C
:103F50000220F0E7761C0498805D0028F0D148F03C
:103F60003008119808B148F0010806EB0900851CDB
:103F7000109820B1012804D002280AD105E000BF22
:103F800009E048F00208AD1C05E048F00408AD1C4B
:103F900001E00320CFE700BF8FB33878022821D19A
:103FA0004FF0000A00BF50460AF1010A385C7D2834
:103FB000F9D1AAF1030A0AF1070002900298A9EBCD
:103FC000000AE81CA0EB0A012046FFF726FE206845
:103FD00008B90420AFE7EA1CA2EB0A012068FCF74D
:103FE000BCFC19E0691D2046FFF717FE206808B9E0
:103FF0000420A0E7691D2068FCF7AFFC0CE0FFE798
:10400000691D2046FFF709FE206808B9042092E7E1
:10401000691D2068FCF7A1FC6168481C606020688D
:1040200000F80180D4E9000281182846FFF7DEFD80
:1040300001900198002804DA2046FFF7C9FD052009
:1040400079E76168019808446060C6F307216268F7
:10405000501C6060206881546268501C6060206859
:104060008654D4E90012881832460499FCF740FBC4
:10407000606830446060109860B14FEA1B2162684C
:10408000501C6060206881546268501C6060206829
:1040900000F802B0C7B1387802280BD1D4E9001279
:1040A00088183946029AFCF7E1FB616802980844D7
:1040B000606009E0D4E9001288184A463946FCF7E6
:1040C000D5FB606848446060002034E72DE9F0418A
:1040D00090B004460D4616469846169F23460CA2FD
:1040E000302104A80095FCF73DF901200021CDE91D
:1040F000000133460A4604A9CDE902070A20FFF76A
:1041000009FF18B1012010B0BDE8F0810020FAE7E6
:10411000247379732F25732F25732F7468696E6745
:104120002F70726F70657274792F706F73740000E6
:104130002DE9FF5F8046174699460E9C0026B24641
:10414000B3460025B8F1000F03D1012004B0BDE84B
:10415000F09F0BE057F8250008B90220F6E757F862
:104160002500FCF70DFB0644681CC5B24D45F1DB8C
:1041700009EB4900801C00EB060A0AF10501204604
:10418000FFF74BFD206808B90320DFE78221626852
:10419000501C606020688154D4E9000281185046A8
:1041A000FFF724FD0FFA80FBBBF1000F04DA204675
:1041B000FFF70EFD0420C9E76068584460604FEACD
:1041C00018216268501C6060206881546268501C2D
:1041D0006060206800F80280002524E057F8250080
:1041E000FCF7CEFA0646C6F307216268501C6060F1
:1041F000206881546268501C606020688654D4E94D
:104200000023D01857F825103246FCF771FA606881
:10421000304460600198C1B26268501C60602068E0
:104220008154681CC5B24D45D8DB00208EE7F0B53F
:1042300004460D462646012300201060002114E0AC
:10424000775C07F07F07106807FB03001060705C65
:1042500000F0800008B9481CF0BDDB01B3F5001F79
:1042600002D36FF00100F7E7491CA942E8DB4FF0E9
:10427000FF30F1E7F0B599B0044600201590169094
:10428000179018900025002614904FF48070FBF7CB
:10429000E6FF149027A0FCF745F827A0FCF742F8AA
:1042A0002BA0FCF73FF8214614A800F039FF054683
:1042B0002CA32FA231A104A8FCF740F8002D2BD08D
:1042C0001498FCF75DFA074615A801210022009218
:1042D0003B46CDE90121039004A90A20149AFFF777
:1042E00019FE002814D1169A91B21598FDF718FFFF
:1042F0002BA0FCF717F815A8FFF76AFC2CA0FCF719
:1043000011F831A0FCF70EF829A0FCF70BF806E035
:1043100032A0FCF707F802E038A0FCF703F806A08B
:10432000FCF700F803A0FBF7FDFF1498FBF7C6FFAE
:1043300019B0F0BD0D0A00003D3D3D3D3D3D3D3D08
:104340003D3D3D3D3D3D3D3D3D3D3D0D0A000000B7
:10435000B3A2CAD4CFECD3A6CAF4D0D4C7EBC7F368
:104360000D0A0000455350383236365F31000000E8
:104370003769396236305532587A000024737973C0
:104380002F25732F25732F7468696E672F70726FD6
:1043900070657274792F6765745F7265706C7900EF
:1043A000D5FDD4DAC9CFB4ABCAFDBEDD0D0A00001D
:1043B0002D2D2D2D2D2D2D2D2D2D2D2D2D2D2D2D2D
:1043C0002D2D2D0D0A000000CFECD3A6CAF4D0D4B9
:1043D000C7EBC7F3B3C9B9A6210D0A00B4EDCEF3FC
:1043E0003A20D7EED0C2CAFDBEDDB0FCD7E9B0FCA2
:1043F00020CAA7B0DC210D0A00000000B4EDCEF306
:104400003A20BBF1C8A1D7EED0C2CAFDBEDDB0FCD8
:1044100020CAA7B0DC210D0A0000000070B50546D7
:104420000CA1284601F038FD06460CA1304601F0EB
:1044300033FD04466CB1E068012802D108480078D9
:1044400028B1E06828B906480078012801D1FFF7B3
:1044500047FA70BD706172616D7300004C45440095
:1044600019000020F0B599B0044600201590169070
:10447000179018900025002614904FF48070FBF7D9
:10448000EEFE149029A0FBF74DFF29A0FBF74AFF91
:104490002DA0FBF747FF2046FFF7C0FF214614A8D9
:1044A00001F03CF805462DA32FA232A104A8FBF78A
:1044B00045FF002D2BD01498FCF762F9074615A88C
:1044C0000121002200923B46CDE90121039004A97D
:1044D0000A20149AFFF71EFD002814D1169A91B2F3
:1044E0001598FDF71DFE2CA0FBF71CFF15A8FFF784
:1044F0006FFB2DA0FBF716FF31A0FBF713FF2AA0DF
:10450000FBF710FF06E033A0FBF70CFF02E03AA038
:10451000FBF708FF06A0FBF705FF04A0FBF702FF6F
:104520001498FBF7CBFE19B0F0BD00000D0A000097
:104530003D3D3D3D3D3D3D3D3D3D3D3D3D3D3D3DAB
:104540003D3D3D0D0A000000B3A2CAD4CFECD3A676
:10455000CAF4D0D4C9E8D6C30D0A00004553503878
:104560003236365F310000003769396236305532F5
:10457000587A0000247379732F25732F25732F74B5
:1045800068696E672F70726F70657274792F7365CA
:10459000745F7265706C7900D5FDD4DAC9CFB4ABA5
:1045A000CAFDBEDD0D0A00002D2D2D2D2D2D2D2D2A
:1045B0002D2D2D2D2D2D2D2D2D2D2D0D0A000000F5
:1045C000CFECD3A6CAF4D0D4C9E8D6C3B3C9B9A630
:1045D000210D0A00B4EDCEF33A20BBF1C8A1CAF414
:1045E000D0D4C9E8D6C3CFECD3A6D7E9B0FC20CA53
:1045F000A7B0DC210D0A0000B4EDCEF33A20BBF1E8
:10460000C8A1CAF4D0D4C9E8D6C3CFECD3A6B0FCB5
:1046100020CAA7B0DC210D0A00000000014648783E
:10462000022801D001207047887810B188780128CD
:1046300001D1C878F7E7FF20F5E700002DE9FC5F1E
:1046400081460D4614461E46DDE90C8B99F80000A4
:1046500000F00F0A002001900AF008000090CAF351
:1046600041008BF8000001AA042109F10100FFF7C5
:10467000DEFD4844471C0198022802D30AF00100DD
:1046800010B1FF20BDE8FC9F7878397840EA01201E
:1046900020802088801C0199884201D9FF20F1E701
:1046A00054A1B81CFCF736F808B10F20EAE79BF8D4
:1046B000000020B101283DD0022877D13BE00098CE
:1046C00008B1FF20DEE72188481CFBF7C8FD286001
:1046D000286808B9FF20D5E72288511C2868FCF714
:1046E0003CF92288B91C2868FCF7C0F80198801EA4
:1046F0002188401AA8F80000B8F80010481CFBF701
:10470000AEFD3060306820B92868FBF7D7FDFF2088
:10471000B8E7B8F80020511C3068FCF71EF9B8F86B
:104720000020B4F800C0BB1C0CEB03013068FCF7A0
:104730009DF84FE000BF2088801C0199884201D974
:10474000FF209FE72088C01C395C2088801C385CD3
:1047500041EA00210E9801800E9808B9FF2091E7E8
:104760002188481CFBF77BFD2860286808B9FF20DA
:1047700088E72288511C2868FCF7EFF82288B91CCA
:104780002868FCF773F80198001F2188401AA8F8E0
:104790000000B8F80010481CFBF761FD306030687D
:1047A00028B92868FBF78AFDFF206BE710E0B8F80E
:1047B0000020511C3068FCF7D0F8B8F80020B4F89D
:1047C00000C03B1D0CEB03013068FCF74FF801E023
:1047D000FF2057E700BF2B212846FBF77FFF20B9BA
:1047E00023212846FBF77AFF08B1FF204AE7002083
:1047F00048E70000246372657100000001464878B4
:10480000022801D001207047887820B9C8780A288A
:1048100001D10020F7E70120F5E70000F8B50446D4
:10482000FF2720780511012D01DB0E2D01DD384613
:10483000F8BD032D24D1002000906A460421601C9D
:10484000FFF7F5FC2044461C0098022803D320788B
:1048500000F0010008B1FF20EAE77078317840EA03
:104860000120801C0099884201D9FF20E0E706A1C1
:10487000B01CFBF74FFF08B10F2700E0032700E053
:104880002F463846D4E700002463726571000000AB
:104890000146FF208A78A2B9CA78142A11D10A7970
:1048A00032B1012A05D0022A04D0802A06D103E0C1
:1048B00000BF00BF002003E0012001E0022000BF94
:1048C00000BF704700BFFEE770470000F0B58BB037
:1048D0000546002600242846FBF752FFC7B20DB15B
:1048E0001C2F02DA01200BB0F0BD06E0A85D01A983
:1048F00088550020A855701CC6B2BE42F6DB0020C9
:1049000001A988550026002455E001A8805D2B28C8
:1049100010D008DC202814D023282ED0252825D01C
:1049200026283FD130E02F2812D03D2833D03F2811
:1049300038D114E0281923A1FBF78CFFE01CC4B286
:1049400036E0281920A1FBF785FFE01CC4B22FE058
:1049500028191EA1FBF77EFFE01CC4B228E028192D
:104960001BA1FBF777FFE01CC4B221E0281919A1B5
:10497000FBF770FFE01CC4B21AE0281916A1FBF780
:1049800069FFE01CC4B213E0281914A1FBF762FF11
:10499000E01CC4B20CE0281911A1FBF75BFFE01C7E
:1049A000C4B205E001A8805D2855601CC4B200BFF8
:1049B00000BF701CC6B2BE42A7DB0020285500BF56
:1049C00091E70000253242002532300025324600B2
:1049D0002533460025323500253233002532360096
:1049E000253344002DE9F04FC9B005460C46164664
:1049F0001F460DF5A47898E8000F0020489055B1A7
:104A00004CB13F48864206D32FB1B9F1000F02D016
:104A1000BAF1780F03DA012049B0BDE8F08F4021E8
:104A200018A8FBF7BCFF3846FBF7AAFE05903B46EB
:104A300048AA4021009018A8FDF79EF8482106A832
:104A4000FBF7ADFFBBF1000F09D02EA033462FA21C
:104A500048218DE8310006A8FBF784FC09E029A075
:104A6000334630A248218DE81101039506A8FBF7D3
:104A700079FC402128A8FBF792FF06A8FBF780FEEF
:104A8000059018A8FBF77CFE049028A8009006AAC1
:104A900018A8DDE9041301F08FFC002048904021A4
:104AA00038A8FBF77CFF28A8FBF76AFE059028AB27
:104AB00048AA4021009038A8FDF714F938A8FFF75C
:104AC00005FFBBF1000F0CD038A80EA12B461DA28C
:104AD000CDE90046CDE9021051464846FBF742FCBD
:104AE0000CE038A807A12B46244ACDE901860094A2
:104AF000CDE9031051464846FBF734FC00208BE714
:104B00009554415D736861310000000025640A25F9
:104B1000730A70726F64756374732F25730A25733B
:104B20000000000025640A25730A70726F647563C3
:104B300074732F25732F646576696365732F2573EE
:104B40000A25730076657273696F6E3D2573267250
:104B500065733D70726F64756374732525324625E5
:104B6000732665743D2564266D6574686F643D2504
:104B700073267369676E3D2573000000B0990008C5
:104B800010B594B00446002010901190129013902C
:104B900002A801900FA012A322463821009002A87B
:104BA000FBF7E0FB02A911A0FBF7BCFB10A8012357
:104BB00001AA002100901420FFF7BAFA38B9119A1F
:104BC00091B21098FDF7ACFA10A8FFF701F814B0F5
:104BD00010BD0000455350383236365F31000000BA
:104BE0003769396236305532587A0000B3A2CAD4D8
:104BF000B6A9D4C420546F7069633A2025730D0A96
:104C0000000000002DE9F04F85B0044601F0E5F802
:104C100000903C483CA1026801A8FBF78FFB01A86B
:104C200001F0E4F80646324638A1009801F0A2F8F7
:104C300034480068401C3349086035A001F0D6F8BC
:104C40000646324633A1009801F094F801F0C5F809
:104C5000824601F0C2F805463048007840B901F0BC
:104C6000A1F8064632462EA1284601F083F807E057
:104C700001F0CAF80646324629A1284601F07AF822
:104C80002A4629A1504601F075F801F0A6F88046A1
:104C90002648007804F060F9064601F08CF8834657
:104CA0005A461FA1404601F065F8424620A15046F1
:104CB00001F060F801F091F881461F48007804F097
:104CC0004BF9064601F077F883465A4614A1484648
:104CD00001F050F84A4619A1504601F04BF85246EF
:104CE00018A1009801F046F8009801F02FF9206013
:104CF000009801F093F82068FBF742FDC0B205B0C0
:104D0000BDE8F08F4C0000202564000069640000BD
:104D1000312E300076657273696F6E0019000020C5
:104D200076616C75650000004C4544003D00002034
:104D300068756D69000000003E00002074656D70AC
:104D400000000000706172616D7300002DE9F34F87
:104D500083B0039801F0C0F88246BAF1000F03D186
:104D6000002005B0BDE8F08F30A1504601F094F866
:104D7000064616B1F068052804D0504601F04EF8FA
:104D80000020EEE7304601F07EF880464FF0000943
:104D900044E04946304601F06DF88346BBF1000F10
:104DA00000D139E023A1584601F076F804463CB121
:104DB000E068042804D120690499FBF717FE00B1CC
:104DC0002AE01FA1584601F067F807461FA1584680
:104DD00001F062F8054637B1F868042803D115B12F
:104DE000E868042800D017E000F0F7FF0290286977
:104DF00000F0FCFF009002463969029800F0BAFF0B
:104E0000029801F0ACF80190029801F007F85046C2
:104E100001F004F80198A4E709F10109C145B8DBE4
:104E2000504600F0FBFF00209BE7000064617461C6
:104E3000000000006964656E74696669657200004F
:104E4000646174615F7479706500000076616C75EF
:104E50006500000030B5B3B000202F903090319045
:104E60003290012503E04FF4FA7001F0C3F83EA13F
:104E70003FA0FDF72BF90028F5D1A02107AA48A3F0
:104E8000CDE90032CDE9021048A3544A54A157A0FD
:104E9000FFF7A8FD58A0FBF745FA58A0FBF742FA28
:104EA0005CA0FBF73FFA2FA8002102910391CDE906
:104EB0000410084601210B0239A2CDE9001007A910
:104EC00047A0FEF7D7FE002842D1309A91B22F9822
:104ED000FDF726F9FA20FCF7CBFF0446002C30D072
:104EE0002046FFF79BFC022827D12046FFF796FBC0
:104EF00006281DD2DFE800F003080C1014184BA0A0
:104F0000FBF710FA002517E04BA0FBF70BFA13E0B4
:104F10004FA0FBF707FA0FE054A0FBF703FA0BE0F2
:104F200058A0FBF7FFF907E05EA0FBF7FBF903E0F1
:104F300066A0FBF7F7F900BF06E06AA0FBF7F2F9FD
:104F400002E06DA0FBF7EEF92FA8FEF741FE02E0AC
:104F50006DA0FBF7E7F929A0FBF7E4F926A0FBF722
:104F6000E1F9284633B030BD434F4E4E454354001F
:104F700041542B43495053544152543D22544350C1
:104F8000222C226D717474732E6865636C6F756466
:104F9000732E636F6D222C313838330D0A000000F8
:104FA000455350383236365F310000006330637944
:104FB00061304534596B4A596248425A646D747580
:104FC000627A424B56584E35536B6C50566C5A5061
:104FD000654459305430673D0000000000CF9D7497
:104FE0003769396236305532587A000032303138FC
:104FF0002D31302D333100000D0A00003D3D3D3D87
:105000003D3D3D3D3D3D3D3D3D3D3D3D3D3D3D0D00
:105010000A000000D5FDD4DAB3A2CAD4B5C7C2BC19
:105020004F6E654E6574210D0A000000B5C7C2BC05
:10503000B3C9B9A6210D0A00B5C7C2BCCAA7B0DC66
:105040003A20D0ADD2E9B4EDCEF3210D0A00000034
:10505000B5C7C2BCCAA7B0DC3A20B7C7B7A8B5C4A9
:10506000636C69656E746964210D0A00B5C7C2BCC2
:10507000CAA7B0DC3A20B7FECEF1C6F7CAA7B0DCAB
:10508000210D0A00B5C7C2BCCAA7B0DC3A20D3C301
:10509000BBA7C3FBBBF2C3DCC2EBB4EDCEF3210D67
:1050A0000A000000B5C7C2BCCAA7B0DC3A20B7C727
:1050B000B7A8C1B4BDD328B1C8C8E7746F6B656E1B
:1050C000B7C7B7A829210D0A00000000B5C7C2BCA8
:1050D000CAA7B0DC3A20CEB4D6AAB4EDCEF3210DE7
:1050E0000A000000C6BDCCA8B7C7D5FDB3A3CFEC5E
:1050F000D3A6210D0A000000B5C8B4FDCFECD3A69D
:10510000B3ACCAB1210D0A004D5154542050616313
:105110006B6574D7E9B0FC20CAA7B0DC210D0A008A
:105120002DE9F04F95B00446894600F056FE0490F4
:1051300046A1484600F0B0FE824605A8DAF81010F5
:10514000FBF7FAFA05A800F051FE05462A463FA1F2
:10515000049800F00FFE00203D4900F02CFE0546AB
:105160002A463CA1049800F005FE3CA000F03EFE5B
:1051700005462A463BA1049800F0FCFD00F02DFEF8
:10518000039039A1484600F087FE0290029800F093
:105190007AFE0190002542E02946029800F06AFE5E
:1051A000064633A13069FBF721FC98B931480078F5
:1051B00040B900F0F7FD07463A462DA1039800F0EC
:1051C000D9FD07E000F020FE07463A4628A10398E3
:1051D00000F0D0FD28A13069FBF708FC60B9284831
:1051E000007803F0B9FE074600F0E5FD83465A4615
:1051F00021A1039800F0BEFD22A13069FBF7F6FB68
:1052000060B92248007803F0A7FE074600F0D3FDFE
:1052100083465A461BA1039800F0ACFD6D1C019813
:105220008542B9DB1AA1DDE9032000F0A3FD049853
:1052300000F08CFE2060049800F0F0FD2068FBF781
:105240009FFAC0B215B0BDE8F08F0000696400009D
:1052500000006940636F646500000000737563635C
:10526000657373006D736700706172616D73000028
:105270004C4544001900002068756D69000000006D
:105280003D00002074656D70000000003E000020AD
:1052900064617461000000002DE9F04397B0064698
:1052A0000020169015901490139012900024002561
:1052B000002780463046FFF7B1FA0446032C04D09D
:1052C000042C5ED0092C7DD169E04A4812A913AAAA
:1052D00016ABCDE90021029014AA15A93046FFF7BC
:1052E000ADF90546002D4BD143A0FBF71BF843A0B9
:1052F000FBF718F847A0FBF715F84BA0FBF712F8DF
:10530000BDF84C000090BDF850204DA0DDE915130C
:10531000FBF708F844A0FBF705F838A0FBF702F804
:1053200035A0FAF7FFFF56A358A25BA102A8FBF72E
:1053300005F802A91598FBF759FB50B9169800F02B
:10534000CBFD81464846FEF795FF484600F066FDD6
:1053500000BF4BA34DA258A102A8FAF7EFFF02A984
:105360001598FBF743FB50B9169800F0B5FD814640
:105370004846FFF777F8484600F050FD00BF00BFF1
:1053800023E029A0FAF7CEFF3046FFF737FA10B92D
:1053900051A0FAF7C7FF24A0FAF7C4FF15E022A036
:1053A000FAF7C0FF3046FFF773FA20B951A0FAF7B9
:1053B000B9FF03E006E054A0FAF7B4FF1AA0FAF729
:1053C000B1FF02E04FF0FF3500BF00BFFCF73EFD2C
:1053D000681C10B917B0BDE8F0830F2C01D0032C66
:1053E00005D11598FAF76AFF1698FAF767FF00BF1C
:1053F000F0E70000480000200D0A00003D3D3D3D63
:105400003D3D3D3D3D3D3D3D3D3D3D3D3D3D3D0DFC
:105410000A000000CAD5B5BD5075626C697368CFCB
:10542000FBCFA2A3BA0D0A002D2D2D2D2D2D2D2D34
:105430002D2D2D2D2D2D2D2D2D2D2D0D0A00000066
:1054400020746F7069633A2025730D0A20746F70A1
:1054500069635F6C656E3A2025640D0A207061797E
:105460006C6F61643A2025730D0A207061796C6F4E
:1054700061645F6C656E3A2025640D0A00000000CF
:10548000455350383236365F310000003769396293
:1054900036305532587A0000247379732F25732FD4
:1054A00025732F7468696E672F70726F70657274E0
:1054B000792F676574000000247379732F25732F8B
:1054C00025732F7468696E672F70726F70657274C0
:1054D000792F7365740000004D515454205075624B
:1054E0006C697368B0FC20B7A2CBCDB3C9B9A62153
:1054F0000D0A00004D51545420B6A9D4C4B3C9B903
:10550000A6210D0A000000004D51545420B6A9D424
:10551000C4CAA7B0DC210D0A000000002DE9F0414B
:1055200090B004460D4600F058FC074619A12846E5
:1055300000F0B2FC064668463169FBF7FDF86846A4
:1055400000F054FC8046424612A1384600F012FC9E
:105550000020114900F02FFC804642460FA138463A
:1055600000F008FC0FA000F041FC804642460FA16D
:10557000384600F0FFFB384600F0E8FC2060384673
:1055800000F04CFC2068FBF7FBF8C0B210B0BDE89F
:10559000F08100006964000000006940636F646589
:1055A0000000000073756363657373006D736700BB
:1055B000F0B5ADF56D7D00253AA0FAF7B3FE3AA03F
:1055C000FAF7B0FE03E04FF4FA7000F013FD3CA1CF
:1055D0003DA0FCF77BFD0028F5D147A349A24CA1D3
:1055E000CDA8FAF7ABFE00204FF480718DAA42A33C
:1055F000CDE90032CDE902104DA3594A41A159A08D
:10560000FFF7F0F98DAACDA959A0FCF7CBFD07460D
:1056100039460DA8FBF790F80DA8FBF7B1F8044642
:10562000A1B20DA8FCF77CFD03E06420FCF720FC90
:105630000546002DF9D02846FEF7B7F8064655A1D5
:105640003046FFF783FB0746394605A8FBF774F899
:105650003046FAF733FE05A8C0B14FA1FBF75AF860
:1056600040B1002220214E48FDF75AF801204D4953
:10567000087007E0012220214948FDF751F8002079
:105680004849087048A0FAF74DFE02E04CA0FAF72E
:1056900049FE05A0FAF746FE02A0FAF743FE0DF513
:1056A0006D7DF0BD0D0A00003D3D3D3D3D3D3D3D64
:1056B0003D3D3D3D3D3D3D3D3D3D3D0D0A00000034
:1056C000434F4E4E4543540041542B43495053548D
:1056D0004152543D22544350222C22696F742D6153
:1056E00070692E6865636C6F7564732E636F6D22CD
:1056F0002C38300D0A000000455350383236365FE2
:10570000310000003769396236305532587A00006E
:1057100070726F647563745F69643D257326646598
:10572000766963655F6E616D653D257300000000FD
:105730006330637961304534596B4A596248425A43
:10574000646D7475627A424B56584E35536B6C508B
:10575000566C5A50654459305430673D0000000083
:1057600063216769323031382D31302D33310000FB
:105770002F7468696E676D6F64656C2F71756572E3
:10578000792D6465766963652D70726F70657274CA
:10579000790000004C4544007472756500000000FB
:1057A000000C0140190000204F6E654E657420CA40
:1057B000FDBEDDCDACB2BDB3C9B9A6210D0A000056
:1057C0004F6E654E657420CAFDBEDDCDACB2BDCA5C
:1057D000A7B0DC210D0A00007047000008B5084999
:1057E0000968C9084FF47A72B1FBF2F141430091A4
:1057F00000BF00BF00994A1E00920029F9D108BDE0
:1058000000000020704710B5FCF7C6FF10BD7047C0
:1058100000BF044800680028FBD103480068014924
:1058200008607047380000203400002010B502489E
:10583000FDF781FC10BD0000B001002010B502682A
:10584000204B98420ED0204B98420BD0B0F1804FA5
:1058500008D01E4B984205D01D4B984202D01D4BDC
:10586000984203D122F070024B681A43154B9842BC
:105870000ED0154B98420BD0B0F1804F08D0134B8F
:10588000984205D0124B984202D0124B984203D155
:1058900022F44072CB681A4322F080034C6943EA39
:1058A000040202608B68C3620B688362054B9842F6
:1058B00002D0054B984201D10B6903630123436178
:1058C00010BD0000002C01400034014000040040E5
:1058D00000080040000C00402DE9F04107460C464E
:1058E00015461E464FF47A707843094908604FF414
:1058F0007A706043074908600748056007480660FA
:10590000632140F2CF2000F009FABDE8F0810000E9
:105910001C000020240000202C0000203400002067
:1059200070B505466C6A0020E085E0842046FDF7EE
:10593000FCFC70BD0168C96821F490710268D160F7
:105940000168496921F0010102685161202180F854
:105950003A10704710B504462068C06820F0400037
:105960002168C860202084F839002046FDF71CFF1C
:10597000002010BD70B5044694F83A00222847D1A3
:10598000A068B0F5805F0CD1206950B90025A66AE7
:1059900020684068C0F308003080A06A801CA062C4
:1059A00015E0A56A0026A068B0F5805F03D0A06866
:1059B00028B9206918B920684068287004E0206878
:1059C000406800F07F002870A06A401CA062E08D53
:1059D000401E80B2E085C8B92068C06820F0200071
:1059E0002168C8602068C06820F480702168C860A1
:1059F0002068406920F0010021684861202084F877
:105A00003A002046FDF760FE002070BD0020FCE754
:105A10000220FAE770B504462168096921F4405173
:105A2000E2681143226811612269A1681143626929
:105A300041EA02052168C96841F20C629143294399
:105A40002268D1602168496921F44071A26911433B
:105A5000226851612D4A2168914202D1FDF722F856
:105A600001E0FDF70FF800EBC00101EB00116268E7
:105A70009200B1FBF2F100EBC00202EB001263688E
:105A80009B00B2FBF3F26423B2FBF3F202EBC2031E
:105A900003EB0212A1EB8201322202EB011164221C
:105AA000B1FBF2F101F0F00100EBC00202EB0012D9
:105AB00063689B00B2FBF3F26423B2FBF3F201EBE9
:105AC000021200EBC00101EB001163689B00B1FB07
:105AD000F3F100EBC00303EB00136668B600B3FB01
